:1000000027C040C0BFC05FC13DC03CC03BC03AC07C
:1000100039C038C037C0FFC028C134C033C032C077
:1000200031C030C02FC05246204D6F64656D2043F3
:10003000686174205265616479004A616E203237CC
:1000400020323030340031343A31313A3139000025
:1000500011241FBECFE5D4E0DEBFCDBF10E0A0E687
:10006000B0E0E2EAFAE102C005900D92A838B107CB
:10007000D9F710E0A8E8B0E001C01D92AF3BB1078E
:10008000E1F752C0BDCFC29884E68FB9779BFECF0F
:1000900077988FB180938D00C29A8091BE008F5F58
:1000A0008093BE008091B500813099F4C29882E0BF
:1000B0008FB9779BFECF77988FB180938D0089E0C1
:1000C0008FB9779BFECF779881E88FB9779BFECF6A
:1000D00012C0C29882E08FB9779BFECF77988FB11C
:1000E00080938D0089E08FB9779BFECF779880E869
:1000F0008FB9779BFECF7798C29A8091BE008F5FB1
:100100008093BE00C29881E68FB9779BFECF779827
:100110008FB180938D00C29A8091BE008F5F8093D3
:10012000BE00999BFECF0895CFE5D4E0DEBFCDBFE2
:1001300082E061D261E086E690E0F0D286E290E073
:1001400014DA8AE390E011DA86E490E00EDAF3D470
:100150008AE090E09093B7008093B6009093A1005E
:100160008093A000109289001092880010928B005A
:1001700010928A001092B5001092A3006FE088E000
:100180008CD2FFCF1F920F920FB60F9211242F9394
:100190003F934F935F936F937F938F939F93AF930F
:1001A000BF93EF93FF9380E88ABF8091B5008130C1
:1001B00009F18091880099278B559F4F49EB50E0BA
:1001C00062EA70E02BD7909188008091A200492FBD
:1001D000480F512D511D9A01CA01807F9370281B31
:1001E000390B2093880081E08093B80093B380E2BC
:1001F000892785BBFF91EF91BF91AF919F918F911F
:100200007F916F915F914F913F912F910F900FBE12
:100210000F901F9018951F920F920FB60F921124F6
:100220002F933F938F939F93EF93FF935F981CB807
:1002300080918A00282F3327F901E157FF4F8CB1B5
:1002400080832F5F3F4FC901807F9170281B390B3E
:1002500020938A00FF91EF919F918F913F912F9171
:100260000F900FBE0F901F9018951F920F920FB610
:100270000F9211242F933F938F939F93EF93FF93AC
:100280005D988091880020918900821781F0332742
:10029000F901EB55FF4F80818CB92F5F3F4FC901AA
:1002A000807F9170281B390B2093890001C05598DD
:1002B000FF91EF919F918F913F912F910F900FBEE2
:1002C0000F901F9018951F920F920FB60F92112446
:1002D0002F933F934F935F936F937F938F939F934E
:1002E000AF93BF93EF93FF938091A3008130B1F45C
:1002F0008091B6009091B70001979093B7008093DA
:10030000B60099238CF58AE090E09093B700809333
:10031000B600E0916200F091630025C08091A300D7
:100320008230B1F48091A0009091A1000197909348
:10033000A1008093A0009923BCF48AE090E0909300
:10034000A1008093A000E0916400F09165000BC0D3
:100350008091A3009927880F991FFC01E05AFF4F55
:100360000190F081E02D0995FF91EF91BF91AF9140
:100370009F918F917F916F915F914F913F912F91BD
:100380000F900FBE0F901F901895CF931092B5004D
:1003900090918A0080918B00981731F081E08093D2
:1003A000A3001092A40018C0C091A400CC2369F44B
:1003B0006ADE8BB780688BBF80E88ABF1FD6C09388
:1003C000B80081E08093A40007C08091B800882322
:1003D00019F082E08093A300579ACF91089590B3CB
:1003E00080E1892782BB81E08093B5004CDE80915B
:1003F0008A0020918B00821709F19927AC01421BDA
:1004000051099A01205F3F4FC90112F4CA014F966A
:10041000807F281B390B80918B00992781579F4F34
:1004200049EB50E0622F85D5882351F082E080931C
:10043000A30080918A0080938B0008951092A300FE
:100440000895089582E08093B5008091A4008130E2
:1004500099F4559A80918900282F3327F901EB559B
:10046000FF4F80818CB92F5F3F4FC901807F917012
:10047000281B390B209389001092A40090918900C9
:1004800080918800981711F41092A30008950895A0
:10049000E199FECF8FEF91E09FBB8EBBE09A8DB3C9
:1004A00081BF599A10BC83E389B98EE880BD8AB1B7
:1004B00088618AB98AB1806A8AB9089587E487B960
:1004C00040E059E06DE370E082E3B4D084E886B99F
:1004D000089540E050E030E0369A349BFECF24B1DE
:1004E00085B19927982F8827820F911D480F591F92
:1004F0003F5F383088F35695479556954795569502
:100500004795CA0101D00895AF92BF92CF92DF9272
:10051000EF92FF920F931F938C01C801AA2797FDBA
:10052000A095BA2FBC01CD017DD95B016C011123CF
:100530003CF420E030E040E857E4C7D85B016C01B0
:1005400023E333E343E550E4C601B501D9D9DC0127
:10055000CB0120E030E040E85AE3BC01CD01D0D926
:10056000DC01CB012AE939E949E15FE3BC01CD01B6
:10057000ABD8DC01CB012AE037ED43E25CE3BC0100
:10058000CD01EDD85B016C0130D97B018C01CB0131
:10059000AA2797FDA095BA2FBC01CD0143D9FF2012
:1005A0002CF420E030E040E857E48FD89B01AC0108
:1005B000C601B50189D8DC01CB012AE939E949E155
:1005C0005FE3BC01CD0138D9882334F4C601B501FD
:1005D0000CD9DC01CB0106C0C601B50106D9DC018E
:1005E000CB0101961F910F91FF90EF90DF90CF907C
:1005F000BF90AF900895CF93C82F8EE287BB83EC56
:1006000088BB8CE384BB80E385BB82E181BB80EF48
:1006100082BBC29A8DB180658DB9709A8FB78068A0
:100620008FBF85B78A6085BFC1FD32DFC2FD46DF5F
:10063000CF9108959A01AB01682F772788279927D2
:10064000ADD9052E5AE096958795779567955A9579
:10065000D1F7502D6150710981099109D8F708959A
:1006600089B7816089BF12BE88B7816088BF83B7B0
:10067000846083BF0895282F33278AB59BB5822BCA
:10068000932B9BBD8ABD89B7806189BF88B7806184
:1006900088BF8EB58C608EBD089583BD89B7806894
:1006A00089BF80E888BF65BD0895E199FECF9FBBF3
:1006B0008EBB6DBBE29AE19A0895E199FECF9FBB94
:1006C0008EBBE09A8DB3992708954FEF51E020E05B
:1006D00030E082B5886082BD14BC55BD82B59927D3
:1006E00087709070892BD1F72F5F3F4F84B58A3088
:1006F000D8F3000081E02839380718F081B781501D
:1007000081BF2759314018F481B78F5F81BF4150B5
:10071000F1F661B78FEF91E0C8DF0895FC01662321
:1007200069F1C2981FB8779BFECF77988FB18093FD
:100730008D001FB8779BFECF77981FB8779BFECFB1
:100740007798C29A8091BE008F5F8093BE00C29856
:100750001FB8779BFECF77988FB180938D0080E88C
:100760008FB9779BFECF77981FB8779BFECF77988E
:10077000C29A8091BE008F5F8093BE00C29881E0D4
:100780008FB9779BFECF77988FB180938D00808152
:100790009181892F99278FB9779BFECF7798808198
:1007A0008FB9779BFECF7798C29A8091BE008F5FFA
:1007B0008093BE00C29882E08FB9779BFECF779876
:1007C0008FB180938D0082819381892F99278FB972
:1007D000779BFECF779882818FB9779BFECF7798F2
:1007E000C29A8091BE008F5F8093BE00C29883E062
:1007F0008FB9779BFECF77988FB180938D008481DE
:100800009581892F99278FB9779BFECF779884811F
:100810008FB9779BFECF7798C29A8091BE008F5F89
:100820008093BE00C29885E08FB9779BFECF779802
:100830008FB180938D0086819781892F99278FB9F9
:10084000779BFECF779886818FB9779BFECF77987D
:10085000C29A8091BE008F5F8093BE00C29886E0EE
:100860008FB9779BFECF77988FB180938D0080856D
:100870009185892F99278FB9779BFECF77988085AF
:100880008FB9779BFECF7798C29A8091BE008F5F19
:100890008093BE00C29888E08FB9779BFECF77988F
:1008A0008FB180938D0082859385892F99278FB989
:1008B000779BFECF779882858FB9779BFECF77980D
:1008C000C29A8091BE008F5F8093BE00C2988BE079
:1008D0008FB9779BFECF77988FB180938D008485F9
:1008E0009585892F99278FB9779BFECF7798848537
:1008F0008FB9779BFECF7798C29A8091BE008F5FA9
:100900008093BE00C2988DE08FB9779BFECF779819
:100910008FB180938D0086859785892F99278FB910
:10092000779BFECF779886858FB9779BFECF779898
:10093000C29A8091BE008F5F8093BE00C29881E111
:100940008FB9779BFECF77988FB180938D00808988
:100950009189892F99278FB9779BFECF77988089C6
:100960008FB9779BFECF7798C29A8091BE008F5F38
:100970008093BE00C29882E18FB9779BFECF7798B3
:100980008FB180938D0082899389892F99278FB9A0
:10099000779BFECF779882898FB9779BFECF779828
:1009A000C29A8091BE008F5F8093BE00C29884E19E
:1009B0008FB9779BFECF77988FB180938D00848914
:1009C0009589892F99278FB9779BFECF779884894E
:1009D0008FB9779BFECF7798C29A8091BE008F5FC8
:1009E0008093BE00C29885E18FB9779BFECF779840
:1009F0008FB180938D0086899789892F99278FB928
:100A0000779BFECF779886898FB9779BFECF7798B3
:100A1000C29A8091BE008F5F8093BE00C29886E12B
:100A20008FB9779BFECF77988FB180938D00808DA3
:100A3000918D892F99278FB9779BFECF7798808DDD
:100A40008FB9779BFECF7798C29A8091BE008F5F57
:100A50008093BE00C2988AE18FB9779BFECF7798CA
:100A60008FB180938D00828D938D892F99278FB9B7
:100A7000779BFECF7798828D8FB9779BFECF779843
:100A8000C29A8091BE008F5F8093BE00C2988BE1B6
:100A90008FB9779BFECF77988FB180938D00848D2F
:100AA000958D892F99278FB9779BFECF7798848D65
:100AB0008FB9779BFECF7798C29A8091BE008F5FE7
:100AC0008093BE00C29880E28FB9779BFECF779863
:100AD0008FB180938D00868D978D892F99278FB93F
:100AE000779BFECF7798868D8FB9779BFECF7798CF
:100AF000C29A8091BE008F5F8093BE00C29881E24F
:100B00008FB9779BFECF77988FB180938D0080A1AE
:100B100091A1892F99278FB9779BFECF779880A1D4
:100B20008FB9779BFECF7798C29A8091BE008F5F76
:100B30008093BE000895C29880E68FB9779BFECF60
:100B400077988FB180938D00C29A8091BE008F5F9D
:100B50008093BE0020E89FE7C2982FB9779BFECF15
:100B60008EB189238EB98FB180938D00C29A809106
:100B70008D0086FFF1CFC29881E68FB9779BFECFBB
:100B800077988FB180938D00C29A8091BE008F5F5D
:100B90008093BE0020E89FE7C2982FB9779BFECFD5
:100BA0008EB189238EB98FB180938D00C29A8091C6
:100BB0008D0082FFF1CF0895C29884E68FB9779BAC
:100BC000FECF77988FB180938D00C29A8091BE003E
:100BD0008F5F8093BE000895EF92FF920F931F9353
:100BE000CF93DF93CDB7DEB722970FB6F894DEBF71
:100BF0000FBECDBFDC0169838A010F2EF0EDEF2E11
:100C0000F7E0FF2EF02DC2988EE88FB9779BFECFCC
:100C100077988FB180938D001FB8779BFECF779820
:100C20008FB120E02FB9779BFECF77988FB1282B1B
:100C3000C29A2F712F3009F098C0C29880E78FB9FF
:100C4000779BFECF77988FB180938D0020E0AE0127
:100C50004F5F5F4F3FE7FA01E20FF11D80818FB9CF
:100C6000779BFECF8EB183238EB92F5FA1F3C29AFB
:100C7000C29880E78FB9779BFECF77988FB180932A
:100C80008D0020E03FE7F801E20FF11D80818FB970
:100C9000779BFECF8EB183238EB92F5FA1F3C29ACB
:100CA000C29880E78FB9779BFECF77988FB18093FA
:100CB0008D0020E08981281778F43FE7FD01E20FDD
:100CC000F11D80818FB9779BFECF8EB183238EB9C2
:100CD0002F5F8981281790F3C29AC29883E68FB953
:100CE000779BFECF77988FB180938D00C29A8399BE
:100CF000FECFF801808180FF88C0C29882E08FB962
:100D0000779BFECF77988FB180938D0089E08FB964
:100D1000779BFECF779880E88FB9779BFECF779847
:100D2000C29A40E059E06DE370E081E083DCC29854
:100D300082E68FB9779BFECF77988FB180938D0035
:100D4000C29A0894E108F108E114F10411F08399C2
:100D5000F8CFEF2869F4C29881E68FB9779BFECF70
:100D600077988FB180938D00C29A80E090E04FC059
:100D7000839BFECFC29880EF8FB9779BFECF779889
:100D80008FB180938D0020E09FE7AE014E5F5F4FF3
:100D90001FB8779BFECF8EB189238EB9FA01E20F7F
:100DA000F11D8FB180832F5F99F3C29AC29880EFB3
:100DB0008FB9779BFECF77988FB180938D0020E01D
:100DC0009FE71FB8779BFECF8EB189238EB9F801BC
:100DD000E20FF11D8FB180832F5F99F3C29AC29801
:100DE00080E88FB9779BFECF77988FB180938D0085
:100DF000C29A20E030E0F801808181FF04C0809138
:100E00008D0083FD21E0C90102C081E090E02296BF
:100E10000FB6F894DEBF0FBECDBFDF91CF911F910B
:100E20000F91FF90EF900895CF93DF93CDB7DEB78A
:100E300021970FB6F894DEBF0FBECDBFDC016983EA
:100E4000C29883E68FB9779BFECF77988FB1809356
:100E50008D00C29A8091BE008F5F8093BE00C298C1
:100E600080E78FB9779BFECF77988FB180938D0005
:100E700020E0BE016F5F7F4F3FE7FB01E20FF11DF6
:100E800080818FB9779BFECF8EB183238EB92F5F80
:100E9000A1F3C29A8091BE008F5F8093BE00C2987A
:100EA00080E78FB9779BFECF77988FB180938D00C5
:100EB00020E03FE7FA01E20FF11D80818FB9779BB7
:100EC000FECF8EB183238EB92F5FA1F3C29A80919A
:100ED000BE008F5F8093BE00C29880E78FB9779B7A
:100EE000FECF77988FB180938D0020E089812817FD
:100EF00078F43FE7FD01E20FF11D80818FB9779B08
:100F0000FECF8EB183238EB92F5F8981281790F38E
:100F1000C29A8091BE008F5F8093BE008399FECFFE
:100F200021960FB6F894DEBF0FBECDBFDF91CF91F3
:100F30000895DC01FA01C29883E68FB9779BFECF52
:100F400077988FB180938D00C29A8091BE008F5F99
:100F50008093BE00C29880E78FB9779BFECF7798C9
:100F60008FB180938D006FB9779BFECF7798C29A2F
:100F70008091BE008F5F8093BE00C29880E78FB9DA
:100F8000779BFECF77988FB180938D0080818FB94A
:100F9000779BFECF7798C29A8091BE008F5F809337
:100FA000BE00C29880E78FB9779BFECF77988FB14C
:100FB00080938D0020E02617B0F44FE7FD01E20F8B
:100FC000F11D80818FB9779BFECF8EB184238EB9BE
:100FD000822F99279C012F5F3F4FC901807F91701D
:100FE000281B261758F3C29A8091BE008F5F80930A
:100FF000BE008399FECF862F99270895C29882E676
:101000008FB9779BFECF77988FB180938D00C29A6E
:101010008091BE008F5F8093BE000895CF93DF93D1
:10102000EC01DB01839BFECFC29880EF8FB9779BE9
:10103000FECF77988FB180938D0020E06FE71FB8C7
:10104000779BFECF8EB186238EB93327FD01E20F49
:10105000F31F8FB180832F5F3F4FC901807F917055
:10106000281B390BC901882351F3C29A8091BE0015
:101070008F5F8093BE00C29880EF8FB9779BFECFC1
:1010800077988FB180938D0020E06FE71FB8779B32
:10109000FECF8EB186238EB93327FA01E20FF31FFC
:1010A0008FB180832F5F3F4FC901807F9170281BD4
:1010B000390BC901882351F3C29A8091BE008F5F1A
:1010C0008093BE00C29880EF8FB9779BFECF779850
:1010D0008FB180938D0020E08C912817B0F44FE7FA
:1010E0001FB8779BFECF8EB184238EB93327FE01C4
:1010F000E20FF31F8FB180832F5F3F4FC901807FC5
:101100009170281B8C91281758F3C29A8091BE00C9
:101110008F5F8093BE00C29880E88FB9779BFECF27
:1011200077988FB180938D00C29A80918D00992716
:1011300096958795969587959695879581709070E9
:10114000DF91CF9108950F931F93CF93DF93CDB786
:10115000DEB721970FB6F894DEBF0FBECDBFDC011E
:101160008B01839BFECFC29880EF8FB9779BFECF18
:1011700077988FB180938D0090E06FE79E012F5F8D
:101180003F4F1FB8779BFECF8EB186238EB9F901F2
:10119000E90FF11D8FB180839F5F99F3C29A80910F
:1011A000BE008F5F8093BE009981F801808189170E
:1011B00018F480E090E059C0C29880EF8FB9779B17
:1011C000FECF77988FB180938D0090E02FE71FB806
:1011D000779BFECF8EB182238EB9FA01E90FF11D04
:1011E0008FB180839F5F99F3C29A8091BE008F5F19
:1011F0008093BE00C29880EF8FB9779BFECF77981F
:101200008FB180938D0090E08981981780F42FE74B
:101210001FB8779BFECF8EB182238EB9FD01E90FF7
:10122000F11D8FB180839F5F8981981788F3C29ADF
:101230008091BE008F5F8093BE008981F80180831A
:10124000C29880E88FB9779BFECF77988FB1809353
:101250008D00C29A80918D009927969587959695D5
:101260008795969587958170907021960FB6F89422
:10127000DEBF0FBECDBFDF91CF911F910F910895BB
:10128000FF920F931F93CF93DF93CDB7DEB72297D3
:101290000FB6F894DEBF0FBECDBFDC018A01C29845
:1012A0008EE88FB9779BFECF77988FB180938D00B2
:1012B0001FB8779BFECF77988FB190E09FB9779B4F
:1012C000FECF77988FB1982BC29A9F719F3009F00B
:1012D0005FC0C29882E68FB9779BFECF77988FB1B7
:1012E00080938D00C29A839B0DC0B09909C0C298AB
:1012F00081E68FB9779BFECF8EB18F778EB944C0D0
:101300008399F3CF839BFECFC29880EF8FB9779BF1
:10131000FECF77988FB180938D0090E04FE79E01CC
:101320002F5F3F4F1FB8779BFECF8EB184238EB9BE
:10133000F901E90FF11D8FB180839F5F99F3C29A84
:10134000C29880EF8FB9779BFECF77988FB180934B
:101350008D0090E02FE71FB8779BFECF8EB18223E0
:101360008EB9F801E90FF11D8FB180839F5F99F36A
:10137000C29A9981FB018081891768F4C29881E63D
:101380008FB9779BFECF77988FB180938D00C29AEB
:1013900080E090E09BC0C29880EF8FB9779BFECF32
:1013A00077988FB180938D0090E08981981780F4B1
:1013B0002FE71FB8779BFECF8EB182238EB9FD0138
:1013C000E90FF11D8FB180839F5F8981981788F3A2
:1013D000C29A8981FB018083C29880E88FB9779B8C
:1013E000FECF77988FB180938D00C29A80918D0047
:1013F0009927969587959695879596958795FF2435
:10140000F394F82280FF60C0F801808180FF5CC007
:10141000826080831A82C29882E08FB9779BFECF68
:1014200077988FB180938D0089E08FB9779BFECF3D
:10143000779881E88FB9779BFECF7798C29A40E082
:1014400059E06DE370E081E0F5D8C29880E78FB98C
:10145000779BFECF77988FB180938D0090E09E01AF
:101460002E5F3F4F4FE7F901E90FF11D80818FB9E2
:10147000779BFECF8EB184238EB99F5FA1F3C29A72
:10148000C29880E78FB9779BFECF77988FB1809312
:101490008D0090E02FE7F801E90FF11D80818FB9F1
:1014A000779BFECF8EB182238EB99F5FA1F3C29A44
:1014B000C29883E68FB9779BFECF77988FB18093E0
:1014C0008D00C29A8399FECF8F2D992722960FB651
:1014D000F894DEBF0FBECDBFDF91CF911F910F916A
:1014E000FF9008955D9BFECF5D988CB99927089574
:1014F0005F9BFECF8CB199270895CF93DF93EC01CA
:101500008881882329F08991EDDF88818823D9F7A4
:10151000DF91CF910895CF93DF93EC0188818823E9
:1015200029F08991DFDF88818823D9F78AE0DADF23
:101530008DE0D8DFDF91CF9108958AE0D3DF8DE091
:10154000D1DF0895CF93DF93EC01FC0121969491B4
:10155000992341F0892FC6DFFE0121968491982FAF
:101560008823C1F7DF91CF910895CF93DF93EC01EA
:10157000FC0121969491992341F0892FB3DFFE015C
:1015800021968491982F8823C1F78AE0ABDF8DE004
:10159000A9DFDF91CF910895AF92BF92CF92DF92F2
:1015A000EF92FF920F931F93CF935B016C010F2E6D
:1015B000F0E0EF2EFAECFF2EFAE90F2FFBE31F2FDE
:1015C000F02DCAE0C601B501A801970119D2DA01D0
:1015D000C901805D87DFC801B7012AE030E040E043
:1015E00050E00ED279018A01C15061F7CF911F916D
:1015F0000F91FF90EF90DF90CF90BF90AF90089544
:101600000F931F93CF938C0180E36CDF88E76ADF31
:10161000C0E0C801892F992782958F708A3010F415
:10162000805D01C0895C5EDF02951295107F1027F6
:10163000007F1027CF5FC43060F3CF911F910F91CF
:101640000895CF92DF92FF920F931F93CF93DF9372
:10165000CDB7DEB721970FB6F894DEBF0FBECDBF72
:101660006C01198200E117E2892B19F480E33ADF5B
:101670001DC00F2EF5E0FF2EF02DC601B801ADD133
:101680009B018981813011F0672B49F0E1E0E9830A
:10169000C601B801A2D16C01822F805D23DFC80191
:1016A0006AE070E09AD18B01FA9439F721960FB66F
:1016B000F894DEBF0FBECDBFDF91CF911F910F9188
:1016C000FF90DF90CF9008955058192EF7D001D099
:1016D000DAC0BA176207730784079507B1F188F477
:1016E0000EF410940B2EBA2FA02D062E622F202D53
:1016F000072E732F302D082E842F402D092E952F65
:10170000502DFF275523B9F0591B49F0573E98F04B
:10171000469537952795A795F0405395C9F776F0EC
:10172000BA0F621F731F841F30F4879577956795F2
:10173000B795F040939517FA0F2E0895BF1BBB275E
:10174000BA0B620B730B840BF6CFDEF6D3C0592FA6
:10175000482F372F262F9FE380E877276627AED0C4
:1017600001D091C0552359F0992369F09F575F57D5
:10177000951B33F442F4903811F4915805C09BC086
:1017800091589F3F09F4B6C0BB2711246217730715
:10179000840730F4660F771F881FBB1F915098F3A2
:1017A00011D00F920FD00F920DD0A0E82617370757
:1017B00048071B0609F0A048BA2F602D7F918F9132
:1017C00000240895A0E80024621773078407B10578
:1017D00028F0621B730B840BB1090A2A660F771F6E
:1017E000881FBB1FA69581F7089597FB73D09F377D
:1017F00038F0FEE9F91B982F872F762F6B2F05C045
:1018000076C09695879577956795F150D0F73EF419
:1018100090958095709561957F4F8F4F9F4F08955C
:10182000E89403C097FB0EF4F3DFB62F672F782FF1
:10183000892F9EE9002427C00ED05EF004C00BD093
:1018400026F001C008D019F020F48FEF089580E051
:10185000089581E0089597FB092E052600F8689405
:1018600030D0E89407FC07C0621773078407950718
:1018700021F008F400940794989408959A95BB0F6A
:10188000661F771F881F11249923A1F08823B2F7C0
:101890009F3F59F0BB0F48F421F4002011F460FF82
:1018A00004C06F5F7F4F8F4F9F4F881F979587951D
:1018B00097F908951CC09FEF80EC0895052E092626
:1018C00007FA440F551F5F3F79F0AA27A51708F0C4
:1018D00051E04795880F991F9F3F31F0BB27B917FB
:1018E00008F091E0879508959F919F91E4CF662736
:1018F0007727882799270895592F482F372F262F84
:10190000DDDF01D0C0CF992339F0552329F09F574F
:101910005F57950F13F4CAF1EDCF91589F3FE1F354
:10192000A62F00241124BB2766275527F8E0A6958B
:1019300020F4020E131EB41F651F220F331F441F15
:10194000551FFA95A1F7F8E0E72F7727F8E0E6951D
:1019500020F4130EB41F651F7A1F330F441F551F49
:10196000AA1FFA95A1F7F82F8827F69520F4B40F4F
:10197000651F7A1F8E1F440F551FAA1FEE1FFF23DE
:10198000A1F788231AF4939539F495CF000C111C14
:10199000BB1F661F771F881F01280895629FD00113
:1019A000739FF001829FE00DF11D649FE00DF11D1A
:1019B000929FF00D839FF00D749FF00D659FF00DC9
:1019C0009927729FB00DE11DF91F639FB00DE11DB6
:1019D000F91FBD01CF011124089597FB092E072699
:1019E0000AD077FD04D027D006D000201AF47095D5
:1019F00061957F4F0895F6F7909581959F4F0895D3
:101A000097FB092E05260ED057FD04D028D00AD00A
:101A1000001C38F450954095309521953F4F4F4F1D
:101A20005F4F0895F6F790958095709561957F4F7B
:101A30008F4F9F4F0895AA1BBB1B51E107C0AA1FE0
:101A4000BB1FA617B70710F0A61BB70B881F991F5F
:101A50005A95A9F780959095BC01CD010895A1E212
:101A60001A2EAA1BBB1BFD010DC0AA1FBB1FEE1F18
:101A7000FF1FA217B307E407F50720F0A21BB30B63
:101A8000E40BF50B661F771F881F991F1A9469F7DF
:101A900060957095809590959B01AC01BD01CF013B
:021AA0000895A7
:101AA200C501EF0122021000800940000F00F27F01
:101AB200E017947AFF7F0308222B4B134B000000A0
:081AC20010A20210F00D00005B
:00000001FF
