:1000000012C02BC02AC029C028C027C026C025C0C6
:1000100024C023C022C021C020C01FC01EC01DC0DC
:100020001CC01BC01AC011241FBECFE5D4E0DEBF28
:10003000CDBF10E0A0E6B0E0E2EDF4E102C0059033
:100040000D92AC38B107D9F710E0ACE8B0E001C0D0
:100050001D92A539B107E1F701C0D2CFCFE3D4E0BB
:10006000DEBFCDBF8AE0DE011196E2E8F0E001904C
:100070000D928A95E1F780E025D161E080E690E07D
:10008000BBD1C7D309E0B09939C012E081E08F8FAE
:10009000C2981FB9779BFECF77988FB180938D0060
:1000A0000FB9779BFECF779881E88FB9779BFECF0A
:1000B0007798C29A809192008F5F8093920040E07F
:1000C00059E06DE370E081E023D1AE01415E5F4F06
:1000D0006AE0CE010196EED3882329F080B390E147
:1000E000892782BB03C086B3812788BB40E059E0E3
:1000F0006DE370E08AE00CD1B09BC8CF84E188A3A7
:10010000C29882E08FB9779BFECF77988FB18093AA
:100110008D000FB9779BFECF779880E88FB9779BDA
:10012000FECF7798C29A809192008F5F8093920061
:1001300040E059E06DE370E081E0EAD0AE01415E5D
:100140005F4FBE01605E7F4FCE010B9607D78823BD
:1001500009F499CF83B390E2892785BB94CFE199C5
:10016000FECF8FEF91E09FBB8EBBE09A8DB381BF36
:10017000599A10BC83E389B98EE880BD8AB1886141
:100180008AB98AB1806A8AB9089587E487B940E05C
:1001900059E06DE370E082E3BBD084E886B908954E
:1001A00040E050E030E0369A349BFECF24B185B178
:1001B0009927982F8827820F911D480F591F3F5F5D
:1001C000383088F3569547955695479556954795F7
:1001D000CA0101D00895AF92BF92CF92DF92EF9201
:1001E000FF920F931F938C01C801AA2797FDA0953A
:1001F000BA2FBC01CD0192D85B016C0111233CF4F4
:1002000020E030E040E857E4DCD75B016C0123E3F9
:1002100033E343E550E4C601B501EED8DC01CB0180
:1002200020E030E040E85AE3BC01CD01E5D8DC0134
:10023000CB012AE939E949E15FE3BC01CD01C0D72F
:10024000DC01CB012AE037ED43E25CE3BC01CD01E8
:1002500002D85B016C0145D87B018C01CB01AA2738
:1002600097FDA095BA2FBC01CD0158D8FF202CF4E2
:1002700020E030E040E857E4A4D79B01AC01C60180
:10028000B5019ED7DC01CB012AE939E949E15FE3F9
:10029000BC01CD014DD8882334F4C601B50121D865
:1002A000DC01CB0106C0C601B5011BD8DC01CB01C6
:1002B00001961F910F91FF90EF90DF90CF90BF902C
:1002C000AF900895CF93C82F8EE287BB83EC88BB95
:1002D0008CE384BB80E385BB82E181BB80EF82BB82
:1002E000C29A8DB180658DB9709A8FB780688FBFC3
:1002F00085B78A6085BFC0FF05C08BB780688BBF9C
:1003000080E88ABFC1FD2BDFC2FD3FDFCF9108959A
:100310009A01AB01682F772788279927BBD8052E2C
:100320005AE096958795779567955A95D1F7502D10
:100330006150710981099109D8F7089589B78160E1
:1003400089BF12BE88B7816088BF83B7846083BFCE
:100350000895282F33278AB59BB5822B932B9BBDFD
:100360008ABD89B7806189BF88B7806188BF8EB533
:100370008C608EBD089583BD89B7806889BF80E891
:1003800088BF65BD0895E199FECF9FBB8EBB6DBB55
:10039000E29AE19A0895E199FECF9FBB8EBBE09A65
:1003A0008DB3992708954FEF51E020E030E082B5FA
:1003B000886082BD14BC55BD82B599278770907046
:1003C000892BD1F72F5F3F4F84B58A30D8F30000D7
:1003D00081E02839380718F081B7815081BF27594B
:1003E000314018F481B78F5F81BF4150F1F661B79A
:1003F0008FEF91E0C8DF0895FC01662369F1C29890
:100400001FB8779BFECF77988FB180938D001FB870
:10041000779BFECF77981FB8779BFECF7798C29ACD
:10042000809192008F5F80939200C2981FB8779B53
:10043000FECF77988FB180938D0080E88FB9779B3E
:10044000FECF77981FB8779BFECF7798C29A80919E
:1004500092008F5F80939200C29881E08FB9779B62
:10046000FECF77988FB180938D0080819181892F05
:1004700099278FB9779BFECF779880818FB9779B2B
:10048000FECF7798C29A809192008F5F80939200FE
:10049000C29882E08FB9779BFECF77988FB1809317
:1004A0008D0082819381892F99278FB9779BFECF09
:1004B000779882818FB9779BFECF7798C29A809187
:1004C00092008F5F80939200C29883E08FB9779BF0
:1004D000FECF77988FB180938D0084819581892F8D
:1004E00099278FB9779BFECF779884818FB9779BB7
:1004F000FECF7798C29A809192008F5F809392008E
:10050000C29885E08FB9779BFECF77988FB18093A3
:100510008D0086819781892F99278FB9779BFECF90
:10052000779886818FB9779BFECF7798C29A809112
:1005300092008F5F80939200C29886E08FB9779B7C
:10054000FECF77988FB180938D0080859185892F1C
:1005500099278FB9779BFECF779880858FB9779B46
:10056000FECF7798C29A809192008F5F809392001D
:10057000C29888E08FB9779BFECF77988FB1809330
:100580008D0082859385892F99278FB9779BFECF20
:10059000779882858FB9779BFECF7798C29A8091A2
:1005A00092008F5F80939200C2988BE08FB9779B07
:1005B000FECF77988FB180938D0084859585892FA4
:1005C00099278FB9779BFECF779884858FB9779BD2
:1005D000FECF7798C29A809192008F5F80939200AD
:1005E000C2988DE08FB9779BFECF77988FB18093BB
:1005F0008D0086859785892F99278FB9779BFECFA8
:10060000779886858FB9779BFECF7798C29A80912D
:1006100092008F5F80939200C29881E18FB9779B9F
:10062000FECF77988FB180938D0080899189892F33
:1006300099278FB9779BFECF779880898FB9779B61
:10064000FECF7798C29A809192008F5F809392003C
:10065000C29882E18FB9779BFECF77988FB1809354
:100660008D0082899389892F99278FB9779BFECF37
:10067000779882898FB9779BFECF7798C29A8091BD
:1006800092008F5F80939200C29884E18FB9779B2C
:10069000FECF77988FB180938D0084899589892FBB
:1006A00099278FB9779BFECF779884898FB9779BED
:1006B000FECF7798C29A809192008F5F80939200CC
:1006C000C29885E18FB9779BFECF77988FB18093E1
:1006D0008D0086899789892F99278FB9779BFECFBF
:1006E000779886898FB9779BFECF7798C29A809149
:1006F00092008F5F80939200C29886E18FB9779BBA
:10070000FECF77988FB180938D00808D918D892F4A
:1007100099278FB9779BFECF7798808D8FB9779B7C
:10072000FECF7798C29A809192008F5F809392005B
:10073000C2988AE18FB9779BFECF77988FB180936B
:100740008D00828D938D892F99278FB9779BFECF4E
:100750007798828D8FB9779BFECF7798C29A8091D8
:1007600092008F5F80939200C2988BE18FB9779B44
:10077000FECF77988FB180938D00848D958D892FD2
:1007800099278FB9779BFECF7798848D8FB9779B08
:10079000FECF7798C29A809192008F5F80939200EB
:1007A000C29880E28FB9779BFECF77988FB1809304
:1007B0008D00868D978D892F99278FB9779BFECFD6
:1007C0007798868D8FB9779BFECF7798C29A809164
:1007D00092008F5F80939200C29881E28FB9779BDD
:1007E000FECF77988FB180938D0080A191A1892F42
:1007F00099278FB9779BFECF779880A18FB9779B88
:10080000FECF7798C29A809192008F5F809392007A
:100810000895C29880E68FB9779BFECF77988FB105
:1008200080938D00C29A809192008F5F8093920096
:1008300020E89FE7C2982FB9779BFECF8EB189231E
:100840008EB98FB180938D00C29A80918D0086FF02
:10085000F1CFC29881E68FB9779BFECF77988FB1A1
:1008600080938D00C29A809192008F5F8093920056
:1008700020E89FE7C2982FB9779BFECF8EB18923DE
:100880008EB98FB180938D00C29A80918D0082FFC6
:10089000F1CF0895C29884E68FB9779BFECF779801
:1008A0008FB180938D00C29A809192008F5F809368
:1008B00092000895EF92FF920F931F93CF93DF93CF
:1008C000CDB7DEB722970FB6F894DEBF0FBECDBF0F
:1008D000DC0169838A010F2EF0EDEF2EF7E0FF2E89
:1008E000F02DC2988EE88FB9779BFECF77988FB1A5
:1008F00080938D001FB8779BFECF77988FB120E053
:100900002FB9779BFECF77988FB1282BC29A2F7182
:100910002F3009F098C0C29880E78FB9779BFECF3F
:1009200077988FB180938D0020E0AE014F5F5F4FCD
:100930003FE7FA01E20FF11D80818FB9779BFECF6F
:100940008EB183238EB92F5FA1F3C29AC29880E73C
:100950008FB9779BFECF77988FB180938D0020E081
:100960003FE7F801E20FF11D80818FB9779BFECF41
:100970008EB183238EB92F5FA1F3C29AC29880E70C
:100980008FB9779BFECF77988FB180938D0020E051
:100990008981281778F43FE7FD01E20FF11D80817E
:1009A0008FB9779BFECF8EB183238EB92F5F89815C
:1009B000281790F3C29AC29883E68FB9779BFECF2F
:1009C00077988FB180938D00C29A8399FECFF801FA
:1009D000808180FF88C0C29882E08FB9779BFECF6C
:1009E00077988FB180938D0089E08FB9779BFECF88
:1009F000779880E88FB9779BFECF7798C29A40E0CE
:100A000059E06DE370E081E083DCC29882E68FB943
:100A1000779BFECF77988FB180938D00C29A089410
:100A2000E108F108E114F10411F08399F8CFEF28FF
:100A300069F4C29881E68FB9779BFECF77988FB122
:100A400080938D00C29A80E090E04FC0839BFECFE0
:100A5000C29880EF8FB9779BFECF77988FB1809344
:100A60008D0020E09FE7AE014E5F5F4F1FB8779B80
:100A7000FECF8EB189238EB9FA01E20FF11D8FB13D
:100A800080832F5F99F3C29AC29880EF8FB9779BCA
:100A9000FECF77988FB180938D0020E09FE71FB83D
:100AA000779BFECF8EB189238EB9F801E20FF11D3D
:100AB0008FB180832F5F99F3C29AC29880E88FB973
:100AC000779BFECF77988FB180938D00C29A20E0FC
:100AD00030E0F801808181FF04C080918D0083FDAA
:100AE00021E0C90102C081E090E022960FB6F8949F
:100AF000DEBF0FBECDBFDF91CF911F910F91FF9051
:100B0000EF900895CF93DF93CDB7DEB721970FB65F
:100B1000F894DEBF0FBECDBFDC016983C29883E6C7
:100B20008FB9779BFECF77988FB180938D00C29A53
:100B3000809192008F5F80939200C29880E78FB976
:100B4000779BFECF77988FB180938D0020E0BE0118
:100B50006F5F7F4F3FE7FB01E20FF11D80818FB98F
:100B6000779BFECF8EB183238EB92F5FA1F3C29AFC
:100B7000809192008F5F80939200C29880E78FB936
:100B8000779BFECF77988FB180938D0020E03FE771
:100B9000FA01E20FF11D80818FB9779BFECF8EB1F4
:100BA00083238EB92F5FA1F3C29A809192008F5F49
:100BB00080939200C29880E78FB9779BFECF779899
:100BC0008FB180938D0020E08981281778F43FE76A
:100BD000FD01E20FF11D80818FB9779BFECF8EB1B1
:100BE00083238EB92F5F8981281790F3C29A809151
:100BF00092008F5F809392008399FECF21960FB66B
:100C0000F894DEBF0FBECDBFDF91CF910895DC0118
:100C1000FA01C29883E68FB9779BFECF77988FB1A0
:100C200080938D00C29A809192008F5F8093920092
:100C3000C29880E78FB9779BFECF77988FB180936A
:100C40008D006FB9779BFECF7798C29A8091920002
:100C50008F5F80939200C29880E78FB9779BFECF19
:100C600077988FB180938D0080818FB9779BFECF6D
:100C70007798C29A809192008F5F80939200C29879
:100C800080E78FB9779BFECF77988FB180938D00E7
:100C900020E02617B0F44FE7FD01E20FF11D80813F
:100CA0008FB9779BFECF8EB184238EB9822F99277F
:100CB0009C012F5F3F4FC901807F9170281B261731
:100CC00058F3C29A809192008F5F8093920083992B
:100CD000FECF862F99270895C29882E68FB9779B19
:100CE000FECF77988FB180938D00C29A8091920049
:100CF0008F5F809392000895CF93DF93EC01DB0127
:100D0000839BFECFC29880EF8FB9779BFECF7798F9
:100D10008FB180938D0020E06FE71FB8779BFECFE7
:100D20008EB186238EB93327FD01E20FF31F8FB1F9
:100D300080832F5F3F4FC901807F9170281B390B43
:100D4000C901882351F3C29A809192008F5F8093EA
:100D50009200C29880EF8FB9779BFECF77988FB1C2
:100D600080938D0020E06FE71FB8779BFECF8EB198
:100D700086238EB93327FA01E20FF31F8FB18083E8
:100D80002F5F3F4FC901807F9170281B390BC9012C
:100D9000882351F3C29A809192008F5F80939200D2
:100DA000C29880EF8FB9779BFECF77988FB18093F1
:100DB0008D0020E08C912817B0F44FE71FB8779B87
:100DC000FECF8EB184238EB93327FE01E20FF31FCD
:100DD0008FB180832F5F3F4FC901807F9170281BA7
:100DE0008C91281758F3C29A809192008F5F80935C
:100DF0009200C29880E88FB9779BFECF77988FB129
:100E000080938D00C29A80918D0099279695879541
:100E1000969587959695879581709070DF91CF9183
:100E200008950F931F93CF93DF93CDB7DEB721972C
:100E30000FB6F894DEBF0FBECDBFDC018B01839BE4
:100E4000FECFC29880EF8FB9779BFECF77988FB196
:100E500080938D0090E06FE79E012F5F3F4F1FB89A
:100E6000779BFECF8EB186238EB9F901E90FF11D74
:100E70008FB180839F5F99F3C29A809192008F5FB8
:100E8000809392009981F8018081891718F480E09D
:100E900090E059C0C29880EF8FB9779BFECF7798CA
:100EA0008FB180938D0090E02FE71FB8779BFECF26
:100EB0008EB182238EB9FA01E90FF11D8FB18083C3
:100EC0009F5F99F3C29A809192008F5F8093920006
:100ED000C29880EF8FB9779BFECF77988FB18093C0
:100EE0008D0090E08981981780F42FE71FB8779BD9
:100EF000FECF8EB182238EB9FD01E90FF11D8FB1B6
:100F000080839F5F8981981788F3C29A80919200AD
:100F10008F5F809392008981F8018083C29880E876
:100F20008FB9779BFECF77988FB180938D00C29A4F
:100F300080918D009927969587959695879596959A
:100F400087958170907021960FB6F894DEBF0FBE22
:100F5000CDBFDF91CF911F910F910895FF920F9315
:100F60001F93CF93DF93CDB7DEB722970FB6F894D8
:100F7000DEBF0FBECDBFDC018A01C2988EE88FB9FB
:100F8000779BFECF77988FB180938D001FB8779BAA
:100F9000FECF77988FB190E09FB9779BFECF77987F
:100FA0008FB1982BC29A9F719F3009F05FC0C29891
:100FB00082E68FB9779BFECF77988FB180938D00B3
:100FC000C29A839B0DC0B09909C0C29881E68FB9BF
:100FD000779BFECF8EB18F778EB944C08399F3CFC4
:100FE000839BFECFC29880EF8FB9779BFECF779817
:100FF0008FB180938D0090E04FE79E012F5F3F4FB0
:101000001FB8779BFECF8EB184238EB9F901E90F0B
:10101000F11D8FB180839F5F99F3C29AC29880EFD0
:101020008FB9779BFECF77988FB180938D0090E03A
:101030002FE71FB8779BFECF8EB182238EB9F801C0
:10104000E90FF11D8FB180839F5F99F3C29A998157
:10105000FB018081891768F4C29881E68FB9779B7C
:10106000FECF77988FB180938D00C29A80E090E098
:101070009BC0C29880EF8FB9779BFECF77988FB1D6
:1010800080938D0090E08981981780F42FE71FB836
:10109000779BFECF8EB182238EB9FD01E90FF11D42
:1010A0008FB180839F5F8981981788F3C29A898165
:1010B000FB018083C29880E88FB9779BFECF779839
:1010C0008FB180938D00C29A80918D00992796955B
:1010D00087959695879596958795FF24F394F822A2
:1010E00080FF60C0F801808180FF5CC082608083E7
:1010F0001A82C29882E08FB9779BFECF77988FB122
:1011000080938D0089E08FB9779BFECF779881E837
:101110008FB9779BFECF7798C29A40E059E06DE394
:1011200070E081E0F5D8C29880E78FB9779BFECF59
:1011300077988FB180938D0090E09E012E5F3F4F96
:101140004FE7F901E90FF11D80818FB9779BFECF41
:101150008EB184238EB99F5FA1F3C29AC29880E7B3
:101160008FB9779BFECF77988FB180938D0090E0F9
:101170002FE7F801E90FF11D80818FB9779BFECF32
:101180008EB182238EB99F5FA1F3C29AC29883E683
:101190008FB9779BFECF77988FB180938D00C29ADD
:1011A0008399FECF8F2D992722960FB6F894DEBF34
:1011B0000FBECDBFDF91CF911F910F91FF9008958A
:1011C0005058192EF7D001D0DAC0BA17620773074A
:1011D00084079507B1F188F40EF410940B2EBA2F02
:1011E000A02D062E622F202D072E732F302D082EB6
:1011F000842F402D092E952F502DFF275523B9F010
:10120000591B49F0573E98F0469537952795A79575
:10121000F0405395C9F776F0BA0F621F731F841F11
:1012200030F4879577956795B795F040939517FAC1
:101230000F2E0895BF1BBB27BA0B620B730B840BD9
:10124000F6CFDEF6D3C0592F482F372F262F9FE336
:1012500080E877276627AED001D091C0552359F09A
:10126000992369F09F575F57951B33F442F49038E8
:1012700011F4915805C09BC091589F3F09F4B6C026
:10128000BB27112462177307840730F4660F771F9A
:10129000881FBB1F915098F311D00F920FD00F925F
:1012A0000DD0A0E82617370748071B0609F0A0480D
:1012B000BA2F602D7F918F9100240895A0E800241B
:1012C000621773078407B10528F0621B730B840B48
:1012D000B1090A2A660F771F881FBB1FA69581F7E1
:1012E000089597FB73D09F3738F0FEE9F91B982FCC
:1012F000872F762F6B2F05C076C0969587957795AB
:101300006795F150D0F73EF4909580957095619572
:101310007F4F8F4F9F4F0895E89403C097FB0EF4C3
:10132000F3DFB62F672F782F892F9EE9002427C07F
:101330000ED05EF004C00BD026F001C008D019F02A
:1013400020F48FEF089580E0089581E0089597FBE1
:10135000092E052600F8689430D0E89407FC07C0F1
:10136000621773078407950721F008F40094079427
:10137000989408959A95BB0F661F771F881F1124B4
:101380009923A1F08823B2F79F3F59F0BB0F48F48F
:1013900021F4002011F460FF04C06F5F7F4F8F4F76
:1013A0009F4F881F9795879597F908951CC09FEFC9
:1013B00080EC0895052E092607FA440F551F5F3F5C
:1013C00079F0AA27A51708F051E04795880F991FD3
:1013D0009F3F31F0BB27B91708F091E0879508953A
:1013E0009F919F91E4CF66277727882799270895B3
:1013F000592F482F372F262FDDDF01D0C0CF99235B
:1014000039F0552329F09F575F57950F13F4CAF110
:10141000EDCF91589F3FE1F3A62F00241124BB2765
:1014200066275527F8E0A69520F4020E131EB41F78
:10143000651F220F331F441F551FFA95A1F7F8E0CF
:10144000E72F7727F8E0E69520F4130EB41F651F09
:101450007A1F330F441F551FAA1FFA95A1F7F82FC3
:101460008827F69520F4B40F651F7A1F8E1F440F4E
:10147000551FAA1FEE1FFF23A1F788231AF4939587
:1014800039F495CF000C111CBB1F661F771F881FF6
:1014900001280895629FD001739FF001829FE00DA3
:1014A000F11D649FE00DF11D929FF00D839FF00DE3
:1014B000749FF00D659FF00D9927729FB00DE11D8F
:1014C000F91F639FB00DE11DF91FBD01CF0111246C
:0214D00008957D
:1014D2001000800940000F00F27FE017947AFF7F2E
:1014E2000308222B4B134B00000010A20210F00D38
:0C14F200000030313233343536373839E1
:00000001FF
